{
    "contractName": "PublicResolver",
    "abi": [
        {
            "inputs": [
                {
                    "internalType": "contract ENS",
                    "name": "_ens",
                    "type": "address"
                }
            ],
            "payable": false,
            "stateMutability": "nonpayable",
            "type": "constructor"
        },
        {
            "anonymous": false,
            "inputs": [
                {
                    "indexed": true,
                    "internalType": "bytes32",
                    "name": "node",
                    "type": "bytes32"
                },
                {
                    "indexed": true,
                    "internalType": "uint256",
                    "name": "contentType",
                    "type": "uint256"
                }
            ],
            "name": "ABIChanged",
            "type": "event"
        },
        {
            "anonymous": false,
            "inputs": [
                {
                    "indexed": true,
                    "internalType": "bytes32",
                    "name": "node",
                    "type": "bytes32"
                },
                {
                    "indexed": false,
                    "internalType": "address",
                    "name": "a",
                    "type": "address"
                }
            ],
            "name": "AddrChanged",
            "type": "event"
        },
        {
            "anonymous": false,
            "inputs": [
                {
                    "indexed": true,
                    "internalType": "bytes32",
                    "name": "node",
                    "type": "bytes32"
                },
                {
                    "indexed": false,
                    "internalType": "uint256",
                    "name": "coinType",
                    "type": "uint256"
                },
                {
                    "indexed": false,
                    "internalType": "bytes",
                    "name": "newAddress",
                    "type": "bytes"
                }
            ],
            "name": "AddressChanged",
            "type": "event"
        },
        {
            "anonymous": false,
            "inputs": [
                {
                    "indexed": true,
                    "internalType": "bytes32",
                    "name": "node",
                    "type": "bytes32"
                },
                {
                    "indexed": true,
                    "internalType": "address",
                    "name": "owner",
                    "type": "address"
                },
                {
                    "indexed": true,
                    "internalType": "address",
                    "name": "target",
                    "type": "address"
                },
                {
                    "indexed": false,
                    "internalType": "bool",
                    "name": "isAuthorised",
                    "type": "bool"
                }
            ],
            "name": "AuthorisationChanged",
            "type": "event"
        },
        {
            "anonymous": false,
            "inputs": [
                {
                    "indexed": true,
                    "internalType": "bytes32",
                    "name": "node",
                    "type": "bytes32"
                },
                {
                    "indexed": false,
                    "internalType": "bytes",
                    "name": "hash",
                    "type": "bytes"
                }
            ],
            "name": "ContenthashChanged",
            "type": "event"
        },
        {
            "anonymous": false,
            "inputs": [
                {
                    "indexed": true,
                    "internalType": "bytes32",
                    "name": "node",
                    "type": "bytes32"
                },
                {
                    "indexed": false,
                    "internalType": "bytes",
                    "name": "name",
                    "type": "bytes"
                },
                {
                    "indexed": false,
                    "internalType": "uint16",
                    "name": "resource",
                    "type": "uint16"
                },
                {
                    "indexed": false,
                    "internalType": "bytes",
                    "name": "record",
                    "type": "bytes"
                }
            ],
            "name": "DNSRecordChanged",
            "type": "event"
        },
        {
            "anonymous": false,
            "inputs": [
                {
                    "indexed": true,
                    "internalType": "bytes32",
                    "name": "node",
                    "type": "bytes32"
                },
                {
                    "indexed": false,
                    "internalType": "bytes",
                    "name": "name",
                    "type": "bytes"
                },
                {
                    "indexed": false,
                    "internalType": "uint16",
                    "name": "resource",
                    "type": "uint16"
                }
            ],
            "name": "DNSRecordDeleted",
            "type": "event"
        },
        {
            "anonymous": false,
            "inputs": [
                {
                    "indexed": true,
                    "internalType": "bytes32",
                    "name": "node",
                    "type": "bytes32"
                }
            ],
            "name": "DNSZoneCleared",
            "type": "event"
        },
        {
            "anonymous": false,
            "inputs": [
                {
                    "indexed": true,
                    "internalType": "bytes32",
                    "name": "node",
                    "type": "bytes32"
                },
                {
                    "indexed": true,
                    "internalType": "bytes4",
                    "name": "interfaceID",
                    "type": "bytes4"
                },
                {
                    "indexed": false,
                    "internalType": "address",
                    "name": "implementer",
                    "type": "address"
                }
            ],
            "name": "InterfaceChanged",
            "type": "event"
        },
        {
            "anonymous": false,
            "inputs": [
                {
                    "indexed": true,
                    "internalType": "bytes32",
                    "name": "node",
                    "type": "bytes32"
                },
                {
                    "indexed": false,
                    "internalType": "string",
                    "name": "name",
                    "type": "string"
                }
            ],
            "name": "NameChanged",
            "type": "event"
        },
        {
            "anonymous": false,
            "inputs": [
                {
                    "indexed": true,
                    "internalType": "bytes32",
                    "name": "node",
                    "type": "bytes32"
                },
                {
                    "indexed": false,
                    "internalType": "bytes32",
                    "name": "x",
                    "type": "bytes32"
                },
                {
                    "indexed": false,
                    "internalType": "bytes32",
                    "name": "y",
                    "type": "bytes32"
                }
            ],
            "name": "PubkeyChanged",
            "type": "event"
        },
        {
            "anonymous": false,
            "inputs": [
                {
                    "indexed": true,
                    "internalType": "bytes32",
                    "name": "node",
                    "type": "bytes32"
                },
                {
                    "indexed": true,
                    "internalType": "string",
                    "name": "indexedKey",
                    "type": "string"
                },
                {
                    "indexed": false,
                    "internalType": "string",
                    "name": "key",
                    "type": "string"
                }
            ],
            "name": "TextChanged",
            "type": "event"
        },
        {
            "constant": true,
            "inputs": [
                {
                    "internalType": "bytes32",
                    "name": "node",
                    "type": "bytes32"
                },
                {
                    "internalType": "uint256",
                    "name": "contentTypes",
                    "type": "uint256"
                }
            ],
            "name": "ABI",
            "outputs": [
                {
                    "internalType": "uint256",
                    "name": "",
                    "type": "uint256"
                },
                {
                    "internalType": "bytes",
                    "name": "",
                    "type": "bytes"
                }
            ],
            "payable": false,
            "stateMutability": "view",
            "type": "function"
        },
        {
            "constant": true,
            "inputs": [
                {
                    "internalType": "bytes32",
                    "name": "node",
                    "type": "bytes32"
                }
            ],
            "name": "addr",
            "outputs": [
                {
                    "internalType": "address payable",
                    "name": "",
                    "type": "address"
                }
            ],
            "payable": false,
            "stateMutability": "view",
            "type": "function"
        },
        {
            "constant": true,
            "inputs": [
                {
                    "internalType": "bytes32",
                    "name": "node",
                    "type": "bytes32"
                },
                {
                    "internalType": "uint256",
                    "name": "coinType",
                    "type": "uint256"
                }
            ],
            "name": "addr",
            "outputs": [
                {
                    "internalType": "bytes",
                    "name": "",
                    "type": "bytes"
                }
            ],
            "payable": false,
            "stateMutability": "view",
            "type": "function"
        },
        {
            "constant": true,
            "inputs": [
                {
                    "internalType": "bytes32",
                    "name": "",
                    "type": "bytes32"
                },
                {
                    "internalType": "address",
                    "name": "",
                    "type": "address"
                },
                {
                    "internalType": "address",
                    "name": "",
                    "type": "address"
                }
            ],
            "name": "authorisations",
            "outputs": [
                {
                    "internalType": "bool",
                    "name": "",
                    "type": "bool"
                }
            ],
            "payable": false,
            "stateMutability": "view",
            "type": "function"
        },
        {
            "constant": false,
            "inputs": [
                {
                    "internalType": "bytes32",
                    "name": "node",
                    "type": "bytes32"
                }
            ],
            "name": "clearDNSZone",
            "outputs": [],
            "payable": false,
            "stateMutability": "nonpayable",
            "type": "function"
        },
        {
            "constant": true,
            "inputs": [
                {
                    "internalType": "bytes32",
                    "name": "node",
                    "type": "bytes32"
                }
            ],
            "name": "contenthash",
            "outputs": [
                {
                    "internalType": "bytes",
                    "name": "",
                    "type": "bytes"
                }
            ],
            "payable": false,
            "stateMutability": "view",
            "type": "function"
        },
        {
            "constant": true,
            "inputs": [
                {
                    "internalType": "bytes32",
                    "name": "node",
                    "type": "bytes32"
                },
                {
                    "internalType": "bytes32",
                    "name": "name",
                    "type": "bytes32"
                },
                {
                    "internalType": "uint16",
                    "name": "resource",
                    "type": "uint16"
                }
            ],
            "name": "dnsRecord",
            "outputs": [
                {
                    "internalType": "bytes",
                    "name": "",
                    "type": "bytes"
                }
            ],
            "payable": false,
            "stateMutability": "view",
            "type": "function"
        },
        {
            "constant": true,
            "inputs": [
                {
                    "internalType": "bytes32",
                    "name": "node",
                    "type": "bytes32"
                },
                {
                    "internalType": "bytes32",
                    "name": "name",
                    "type": "bytes32"
                }
            ],
            "name": "hasDNSRecords",
            "outputs": [
                {
                    "internalType": "bool",
                    "name": "",
                    "type": "bool"
                }
            ],
            "payable": false,
            "stateMutability": "view",
            "type": "function"
        },
        {
            "constant": true,
            "inputs": [
                {
                    "internalType": "bytes32",
                    "name": "node",
                    "type": "bytes32"
                },
                {
                    "internalType": "bytes4",
                    "name": "interfaceID",
                    "type": "bytes4"
                }
            ],
            "name": "interfaceImplementer",
            "outputs": [
                {
                    "internalType": "address",
                    "name": "",
                    "type": "address"
                }
            ],
            "payable": false,
            "stateMutability": "view",
            "type": "function"
        },
        {
            "constant": false,
            "inputs": [
                {
                    "internalType": "bytes[]",
                    "name": "data",
                    "type": "bytes[]"
                }
            ],
            "name": "multicall",
            "outputs": [
                {
                    "internalType": "bytes[]",
                    "name": "results",
                    "type": "bytes[]"
                }
            ],
            "payable": false,
            "stateMutability": "nonpayable",
            "type": "function"
        },
        {
            "constant": true,
            "inputs": [
                {
                    "internalType": "bytes32",
                    "name": "node",
                    "type": "bytes32"
                }
            ],
            "name": "name",
            "outputs": [
                {
                    "internalType": "string",
                    "name": "",
                    "type": "string"
                }
            ],
            "payable": false,
            "stateMutability": "view",
            "type": "function"
        },
        {
            "constant": true,
            "inputs": [
                {
                    "internalType": "bytes32",
                    "name": "node",
                    "type": "bytes32"
                }
            ],
            "name": "pubkey",
            "outputs": [
                {
                    "internalType": "bytes32",
                    "name": "x",
                    "type": "bytes32"
                },
                {
                    "internalType": "bytes32",
                    "name": "y",
                    "type": "bytes32"
                }
            ],
            "payable": false,
            "stateMutability": "view",
            "type": "function"
        },
        {
            "constant": false,
            "inputs": [
                {
                    "internalType": "bytes32",
                    "name": "node",
                    "type": "bytes32"
                },
                {
                    "internalType": "uint256",
                    "name": "contentType",
                    "type": "uint256"
                },
                {
                    "internalType": "bytes",
                    "name": "data",
                    "type": "bytes"
                }
            ],
            "name": "setABI",
            "outputs": [],
            "payable": false,
            "stateMutability": "nonpayable",
            "type": "function"
        },
        {
            "constant": false,
            "inputs": [
                {
                    "internalType": "bytes32",
                    "name": "node",
                    "type": "bytes32"
                },
                {
                    "internalType": "uint256",
                    "name": "coinType",
                    "type": "uint256"
                },
                {
                    "internalType": "bytes",
                    "name": "a",
                    "type": "bytes"
                }
            ],
            "name": "setAddr",
            "outputs": [],
            "payable": false,
            "stateMutability": "nonpayable",
            "type": "function"
        },
        {
            "constant": false,
            "inputs": [
                {
                    "internalType": "bytes32",
                    "name": "node",
                    "type": "bytes32"
                },
                {
                    "internalType": "address",
                    "name": "a",
                    "type": "address"
                }
            ],
            "name": "setAddr",
            "outputs": [],
            "payable": false,
            "stateMutability": "nonpayable",
            "type": "function"
        },
        {
            "constant": false,
            "inputs": [
                {
                    "internalType": "bytes32",
                    "name": "node",
                    "type": "bytes32"
                },
                {
                    "internalType": "address",
                    "name": "target",
                    "type": "address"
                },
                {
                    "internalType": "bool",
                    "name": "isAuthorised",
                    "type": "bool"
                }
            ],
            "name": "setAuthorisation",
            "outputs": [],
            "payable": false,
            "stateMutability": "nonpayable",
            "type": "function"
        },
        {
            "constant": false,
            "inputs": [
                {
                    "internalType": "bytes32",
                    "name": "node",
                    "type": "bytes32"
                },
                {
                    "internalType": "bytes",
                    "name": "hash",
                    "type": "bytes"
                }
            ],
            "name": "setContenthash",
            "outputs": [],
            "payable": false,
            "stateMutability": "nonpayable",
            "type": "function"
        },
        {
            "constant": false,
            "inputs": [
                {
                    "internalType": "bytes32",
                    "name": "node",
                    "type": "bytes32"
                },
                {
                    "internalType": "bytes",
                    "name": "data",
                    "type": "bytes"
                }
            ],
            "name": "setDNSRecords",
            "outputs": [],
            "payable": false,
            "stateMutability": "nonpayable",
            "type": "function"
        },
        {
            "constant": false,
            "inputs": [
                {
                    "internalType": "bytes32",
                    "name": "node",
                    "type": "bytes32"
                },
                {
                    "internalType": "bytes4",
                    "name": "interfaceID",
                    "type": "bytes4"
                },
                {
                    "internalType": "address",
                    "name": "implementer",
                    "type": "address"
                }
            ],
            "name": "setInterface",
            "outputs": [],
            "payable": false,
            "stateMutability": "nonpayable",
            "type": "function"
        },
        {
            "constant": false,
            "inputs": [
                {
                    "internalType": "bytes32",
                    "name": "node",
                    "type": "bytes32"
                },
                {
                    "internalType": "string",
                    "name": "name",
                    "type": "string"
                }
            ],
            "name": "setName",
            "outputs": [],
            "payable": false,
            "stateMutability": "nonpayable",
            "type": "function"
        },
        {
            "constant": false,
            "inputs": [
                {
                    "internalType": "bytes32",
                    "name": "node",
                    "type": "bytes32"
                },
                {
                    "internalType": "bytes32",
                    "name": "x",
                    "type": "bytes32"
                },
                {
                    "internalType": "bytes32",
                    "name": "y",
                    "type": "bytes32"
                }
            ],
            "name": "setPubkey",
            "outputs": [],
            "payable": false,
            "stateMutability": "nonpayable",
            "type": "function"
        },
        {
            "constant": false,
            "inputs": [
                {
                    "internalType": "bytes32",
                    "name": "node",
                    "type": "bytes32"
                },
                {
                    "internalType": "string",
                    "name": "key",
                    "type": "string"
                },
                {
                    "internalType": "string",
                    "name": "value",
                    "type": "string"
                }
            ],
            "name": "setText",
            "outputs": [],
            "payable": false,
            "stateMutability": "nonpayable",
            "type": "function"
        },
        {
            "constant": true,
            "inputs": [
                {
                    "internalType": "bytes4",
                    "name": "interfaceID",
                    "type": "bytes4"
                }
            ],
            "name": "supportsInterface",
            "outputs": [
                {
                    "internalType": "bool",
                    "name": "",
                    "type": "bool"
                }
            ],
            "payable": false,
            "stateMutability": "pure",
            "type": "function"
        },
        {
            "constant": true,
            "inputs": [
                {
                    "internalType": "bytes32",
                    "name": "node",
                    "type": "bytes32"
                },
                {
                    "internalType": "string",
                    "name": "key",
                    "type": "string"
                }
            ],
            "name": "text",
            "outputs": [
                {
                    "internalType": "string",
                    "name": "",
                    "type": "string"
                }
            ],
            "payable": false,
            "stateMutability": "view",
            "type": "function"
        }
    ],
    "bytecode": "60806040523480156200001157600080fd5b50604051620025bf380380620025bf83398101604081905262000034916200006d565b600a80546001600160a01b0319166001600160a01b0392909216919091179055620000d6565b80516200006781620000bc565b92915050565b6000602082840312156200008057600080fd5b60006200008e84846200005a565b949350505050565b60006200006782620000b0565b6000620000678262000096565b6001600160a01b031690565b620000c781620000a3565b8114620000d357600080fd5b50565b6124d980620000e66000396000f3fe608060405234801561001057600080fd5b50600436106101585760003560e01c8063691f3431116100c3578063bc1c58d11161007c578063bc1c58d114610300578063c869023314610313578063d5fa2b0014610334578063e59d895d14610347578063f1cb7e061461035a578063f86bc8791461036d57610158565b8063691f34311461028157806377372213146102945780638b95dd71146102a7578063a8fa5682146102ba578063ac9650d8146102cd578063ad5780af146102ed57610158565b8063304e6ade11610115578063304e6ade146102025780633b3b57de146102155780633e9ce794146102285780634cbf6ba41461023b57806359d1d43c1461024e578063623195b01461026e57610158565b806301ffc9a71461015d5780630af179d71461018657806310f13a8c1461019b578063124a319c146101ae5780632203ab56146101ce57806329cd62ea146101ef575b600080fd5b61017061016b36600461207f565b610380565b60405161017d9190612292565b60405180910390f35b610199610194366004611edf565b6103ad565b005b6101996101a9366004611f35565b61059a565b6101c16101bc366004611e7d565b610647565b60405161017d9190612265565b6101e16101dc366004611dc7565b610872565b60405161017d929190612355565b6101996101fd366004611df7565b610991565b610199610210366004611edf565b610a11565b6101c1610223366004611cdf565b610a70565b610199610236366004611d84565b610aa5565b610170610249366004611dc7565b610b1f565b61026161025c366004611edf565b610b51565b60405161017d91906122e9565b61019961027c366004611fbc565b610c13565b61026161028f366004611cdf565b610c8e565b6101996102a2366004611edf565b610d2f565b6101996102b5366004612024565b610d8e565b6102616102c8366004611e3a565b610e53565b6102e06102db366004611c9d565b610ee0565b60405161017d9190612281565b6101996102fb366004611cdf565b611006565b61026161030e366004611cdf565b611059565b610326610321366004611cdf565b6110c1565b60405161017d9291906122ae565b610199610342366004611cfd565b6110db565b610199610355366004611ead565b611102565b610261610368366004611dc7565b611192565b61017061037b366004611d37565b61123b565b60006001600160e01b03198216631674750f60e21b14806103a557506103a582611261565b90505b919050565b826103b781611286565b6103c057600080fd5b600080606080826103cf6119c9565b61041960008a8a8080601f016020809104026020016040519081016040528093929190818152602001838380828437600092019190915250929392505063ffffffff611355169050565b90505b61042581611370565b61053d5761ffff861661047d57806040015195506104428161137e565b935083604051602001610455919061224e565b604051602081830303815290604052805190602001209150610476816113a5565b925061052f565b60606104888261137e565b9050816040015161ffff168761ffff161415806104b257506104b0858263ffffffff6113c616565b155b1561052d576105068b86898d8d8080601f016020809104026020016040519081016040528093929190818152602001838380828437600092019190915250505050602087015189518c9182900390156113e4565b81604001519650816020015195508094508480519060200120925061052a826113a5565b93505b505b61053881611611565b61041c565b5082511561058f5761058f8984878b8b8080601f0160208091040260200160405190810160405280939291908181526020018383808284376000920191909152505088518b9250828f039150156113e4565b505050505050505050565b846105a481611286565b6105ad57600080fd5b82826009600089815260200190815260200160002087876040516105d2929190612241565b9081526040519081900360200190206105ec929091611a14565b5084846040516105fd929190612241565b6040518091039020867fd8c9334b1a9c2f9da342a0a2b32629c1a229b6445dad78947f674b44444a755087876040516106379291906122d7565b60405180910390a3505050505050565b60008281526006602090815260408083206001600160e01b0319851684529091528120546001600160a01b0316801561068157905061086c565b600061068c85610a70565b90506001600160a01b0381166106a75760009250505061086c565b60006060826001600160a01b03166301ffc9a760e01b6040516024016106cd91906122c9565b60408051601f198184030181529181526020820180516001600160e01b03166301ffc9a760e01b17905251610702919061224e565b600060405180830381855afa9150503d806000811461073d576040519150601f19603f3d011682016040523d82523d6000602084013e610742565b606091505b5091509150811580610755575060208151105b80610779575080601f8151811061076857fe5b01602001516001600160f81b031916155b1561078b57600094505050505061086c565b826001600160a01b0316866040516024016107a691906122c9565b60408051601f198184030181529181526020820180516001600160e01b03166301ffc9a760e01b179052516107db919061224e565b600060405180830381855afa9150503d8060008114610816576040519150601f19603f3d011682016040523d82523d6000602084013e61081b565b606091505b50909250905081158061082f575060208151105b80610853575080601f8151811061084257fe5b01602001516001600160f81b031916155b1561086557600094505050505061086c565b5090925050505b92915050565b600082815260208190526040812060609060015b84811161097357808516158015906108be57506000818152602083905260409020546002600019610100600184161502019091160415155b1561096b576000818152602083815260409182902080548351601f60026000196101006001861615020190931692909204918201849004840281018401909452808452849391928391908301828280156109595780601f1061092e57610100808354040283529160200191610959565b820191906000526020600020905b81548152906001019060200180831161093c57829003601f168201915b5050505050905093509350505061098a565b60011b610886565b505060408051602081019091526000808252925090505b9250929050565b8261099b81611286565b6109a457600080fd5b6040805180820182528481526020808201858152600088815260089092529083902091518255516001909101555184907f1d6f5e03d3f63eb58751986629a5439baee5079ff04f345becb66e23eb154e4690610a0390869086906122ae565b60405180910390a250505050565b82610a1b81611286565b610a2457600080fd5b6000848152600260205260409020610a3d908484611a14565b50837fe379c1624ed7e714cc0937528a32359d69d5281337765313dba4e081b72d75788484604051610a039291906122d7565b60006060610a7f83603c611192565b9050805160001415610a955760009150506103a8565b610a9e816116e4565b9392505050565b6000838152600b60209081526040808320338085529083528184206001600160a01b038716808652935292819020805460ff19168515151790555190919085907fe1c5610a6e0cbe10764ecd182adcef1ec338dc4e199c99c32ce98f38e12791df90610b12908690612292565b60405180910390a4505050565b600091825260056020908152604080842060038352818520548552825280842092845291905290205461ffff16151590565b6060600960008581526020019081526020016000208383604051610b76929190612241565b9081526040805160209281900383018120805460026001821615610100026000190190911604601f81018590048502830185019093528282529092909190830182828015610c055780601f10610bda57610100808354040283529160200191610c05565b820191906000526020600020905b815481529060010190602001808311610be857829003601f168201915b505050505090509392505050565b83610c1d81611286565b610c2657600080fd5b6000198401841615610c3757600080fd5b6000858152602081815260408083208784529091529020610c59908484611a14565b50604051849086907faa121bbeef5f32f5961a2a28966e769023910fc9479059ee3495d4c1a696efe390600090a35050505050565b60008181526007602090815260409182902080548351601f6002600019610100600186161502019093169290920491820184900484028101840190945280845260609392830182828015610d235780601f10610cf857610100808354040283529160200191610d23565b820191906000526020600020905b815481529060010190602001808311610d0657829003601f168201915b50505050509050919050565b82610d3981611286565b610d4257600080fd5b6000848152600760205260409020610d5b908484611a14565b50837fb7d29e911041e8d9b843369e890bcb72c9388692ba48b65ac54e7214c4c348f78484604051610a039291906122d7565b82610d9881611286565b610da157600080fd5b837f65412581168e88a1e60c6459d7f44ae83ad0832e670826c05a4e2476b57af7528484604051610dd3929190612355565b60405180910390a2603c831415610e2557837f52d7d861f09ab3d26239d492e8968629f95e9e318cf0b73bfddc441522a15fd2610e0f846116e4565b604051610e1c9190612273565b60405180910390a25b600084815260016020908152604080832086845282529091208351610e4c92850190611a92565b5050505050565b6000838152600460209081526040808320600383528184205484528252808320858452825280832061ffff8516845282529182902080548351601f6002600019610100600186161502019093169290920491820184900484028101840190945280845260609392830182828015610c055780601f10610bda57610100808354040283529160200191610c05565b604080518281526020808402820101909152606090828015610f1657816020015b6060815260200190600190039081610f015790505b50905060005b82811015610fff576000606030868685818110610f3557fe5b602002820190508035601e1936849003018112610f5157600080fd5b9091016020810191503567ffffffffffffffff811115610f7057600080fd5b36819003821315610f8057600080fd5b604051610f8e929190612241565b600060405180830381855af49150503d8060008114610fc9576040519150601f19603f3d011682016040523d82523d6000602084013e610fce565b606091505b509150915081610fdd57600080fd5b80848481518110610fea57fe5b60209081029190910101525050600101610f1c565b5092915050565b8061101081611286565b61101957600080fd5b600082815260036020526040808220805460010190555183917fb757169b8492ca2f1c6619d9d76ce22803035c3b1d5f6930dffe7b127c1a198391a25050565b600081815260026020818152604092839020805484516001821615610100026000190190911693909304601f81018390048302840183019094528383526060939091830182828015610d235780601f10610cf857610100808354040283529160200191610d23565b600090815260086020526040902080546001909101549091565b816110e581611286565b6110ee57600080fd5b6110fd83603c6102b585611703565b505050565b8261110c81611286565b61111557600080fd5b60008481526006602090815260408083206001600160e01b0319871680855292529182902080546001600160a01b0319166001600160a01b038616179055905185907f7c69f06bea0bdef565b709e93a147836b0063ba2dd89f02d0b7e8d931e6a6daa90611184908690612265565b60405180910390a350505050565b600082815260016020818152604080842085855282529283902080548451600294821615610100026000190190911693909304601f8101839004830284018301909452838352606093909183018282801561122e5780601f106112035761010080835404028352916020019161122e565b820191906000526020600020905b81548152906001019060200180831161121157829003601f168201915b5050505050905092915050565b600b60209081526000938452604080852082529284528284209052825290205460ff1681565b60006001600160e01b0319821663c869023360e01b14806103a557506103a582611733565b600a546040516302571be360e01b815260009182916001600160a01b03909116906302571be3906112bb9086906004016122a0565b60206040518083038186803b1580156112d357600080fd5b505afa1580156112e7573d6000803e3d6000fd5b505050506040513d601f19601f8201168201806040525061130b9190810190611c77565b90506001600160a01b038116331480610a9e57506000838152600b602090815260408083206001600160a01b0385168452825280832033845290915290205460ff16915050919050565b61135d6119c9565b82815260c0810182905261086c81611611565b805151602090910151101590565b602081015181516060916103a5916113969082611758565b8451919063ffffffff61179f16565b60a081015160c082015182516060926103a59281900363ffffffff61179f16565b600081518351148015610a9e5750610a9e8360008460008751611801565b600087815260036020908152604090912054875191880191909120606061141287878763ffffffff61179f16565b9050831561150f5760008a81526004602090815260408083208684528252808320858452825280832061ffff8c168452909152902054600260001961010060018416150201909116041561149a5760008a815260056020908152604080832086845282528083208584529091529020805461ffff19811661ffff918216600019019091161790555b60008a81526004602090815260408083208684528252808320858452825280832061ffff8c16845290915281206114d091611b00565b897f03528ed0c2a3ebc993b12ce3c16bb382f9c7d88ef7d8a1bf290eaf35955a12078a8a6040516115029291906122fa565b60405180910390a2611605565b60008a81526004602090815260408083208684528252808320858452825280832061ffff8c1684529091529020546002600019610100600184161502019091160461158c5760008a815260056020908152604080832086845282528083208584529091529020805461ffff8082166001011661ffff199091161790555b60008a81526004602090815260408083208684528252808320858452825280832061ffff8c168452825290912082516115c792840190611a92565b50897f52a608b3303a48862d07a73d82fa221318c0027fbbcfb1b2329bface3f19ff2b8a8a846040516115fc9392919061231a565b60405180910390a25b50505050505050505050565b60c0810151602082018190528151511161162a576116e1565b600061163e82600001518360200151611758565b6020830151835191019150611659908263ffffffff61182416565b61ffff16604083015281516002919091019061167b908263ffffffff61182416565b61ffff16606083015281516002919091019061169d908263ffffffff61184416565b63ffffffff90811660808401528251600492909201916000916116c39190849061182416565b600283810160a086015261ffff9190911690920190910160c0830152505b50565b600081516014146116f457600080fd5b5060200151600160601b900490565b604080516014808252818301909252606091602082018180388339505050600160601b9290920260208301525090565b60006001600160e01b0319821663691f343160e01b14806103a557506103a582611866565b6000815b8351811061176657fe5b6000611778858363ffffffff6118a116565b60ff169182016001019190508061178f5750611795565b5061175c565b9190910392915050565b6060835182840111156117b157600080fd5b6060826040519080825280601f01601f1916602001820160405280156117de576020820181803883390190505b509050602080820190868601016117f68282876118bf565b509095945050505050565b600061180e8484846118fd565b6118198787856118fd565b149695505050505050565b6000825182600201111561183757600080fd5b50016002015161ffff1690565b6000825182600401111561185757600080fd5b50016004015163ffffffff1690565b60006040516118749061225a565b60405180910390206001600160e01b031916826001600160e01b03191614806103a557506103a582611919565b60008282815181106118af57fe5b016020015160f81c905092915050565b5b602081106118df578151835260209283019290910190601f19016118c0565b905182516020929092036101000a6000190180199091169116179052565b60008351828401111561190f57600080fd5b5091016020012090565b60006001600160e01b0319821663547d2b4160e11b14806103a557506103a58260006001600160e01b0319821663bc1c58d160e01b14806103a557506103a58260006001600160e01b03198216631d9dabef60e11b148061198a57506001600160e01b031982166378e5bf0360e11b145b806103a557506103a58260006001600160e01b03198216631101d5ab60e11b14806103a557506301ffc9a760e01b6001600160e01b03198316146103a5565b6040518060e001604052806060815260200160008152602001600061ffff168152602001600061ffff168152602001600063ffffffff16815260200160008152602001600081525090565b828054600181600116156101000203166002900490600052602060002090601f016020900481019282601f10611a555782800160ff19823516178555611a82565b82800160010185558215611a82579182015b82811115611a82578235825591602001919060010190611a67565b50611a8e929150611b40565b5090565b828054600181600116156101000203166002900490600052602060002090601f016020900481019282601f10611ad357805160ff1916838001178555611a82565b82800160010185558215611a82579182015b82811115611a82578251825591602001919060010190611ae5565b50805460018160011615610100020316600290046000825580601f10611b2657506116e1565b601f0160209004906000526020600020908101906116e191905b611b5a91905b80821115611a8e5760008155600101611b46565b90565b803561086c8161245e565b805161086c8161245e565b60008083601f840112611b8557600080fd5b50813567ffffffffffffffff811115611b9d57600080fd5b60208301915083602082028301111561098a57600080fd5b803561086c81612472565b803561086c8161247b565b803561086c81612484565b60008083601f840112611be857600080fd5b50813567ffffffffffffffff811115611c0057600080fd5b60208301915083600182028301111561098a57600080fd5b600082601f830112611c2957600080fd5b8135611c3c611c378261239c565b612375565b91508082526020830160208301858383011115611c5857600080fd5b611c63838284612418565b50505092915050565b803561086c8161248d565b600060208284031215611c8957600080fd5b6000611c958484611b68565b949350505050565b60008060208385031215611cb057600080fd5b823567ffffffffffffffff811115611cc757600080fd5b611cd385828601611b73565b92509250509250929050565b600060208284031215611cf157600080fd5b6000611c958484611bc0565b60008060408385031215611d1057600080fd5b6000611d1c8585611bc0565b9250506020611d2d85828601611b5d565b9150509250929050565b600080600060608486031215611d4c57600080fd5b6000611d588686611bc0565b9350506020611d6986828701611b5d565b9250506040611d7a86828701611b5d565b9150509250925092565b600080600060608486031215611d9957600080fd5b6000611da58686611bc0565b9350506020611db686828701611b5d565b9250506040611d7a86828701611bb5565b60008060408385031215611dda57600080fd5b6000611de68585611bc0565b9250506020611d2d85828601611bc0565b600080600060608486031215611e0c57600080fd5b6000611e188686611bc0565b9350506020611e2986828701611bc0565b9250506040611d7a86828701611bc0565b600080600060608486031215611e4f57600080fd5b6000611e5b8686611bc0565b9350506020611e6c86828701611bc0565b9250506040611d7a86828701611c6c565b60008060408385031215611e9057600080fd5b6000611e9c8585611bc0565b9250506020611d2d85828601611bcb565b600080600060608486031215611ec257600080fd5b6000611ece8686611bc0565b9350506020611d6986828701611bcb565b600080600060408486031215611ef457600080fd5b6000611f008686611bc0565b935050602084013567ffffffffffffffff811115611f1d57600080fd5b611f2986828701611bd6565b92509250509250925092565b600080600080600060608688031215611f4d57600080fd5b6000611f598888611bc0565b955050602086013567ffffffffffffffff811115611f7657600080fd5b611f8288828901611bd6565b9450945050604086013567ffffffffffffffff811115611fa157600080fd5b611fad88828901611bd6565b92509250509295509295909350565b60008060008060608587031215611fd257600080fd5b6000611fde8787611bc0565b9450506020611fef87828801611bc0565b935050604085013567ffffffffffffffff81111561200c57600080fd5b61201887828801611bd6565b95989497509550505050565b60008060006060848603121561203957600080fd5b60006120458686611bc0565b935050602061205686828701611bc0565b925050604084013567ffffffffffffffff81111561207357600080fd5b611d7a86828701611c18565b60006020828403121561209157600080fd5b6000611c958484611bcb565b6000610a9e8383612195565b6120b281612407565b82525050565b6120b2816123d7565b60006120cc826123ca565b6120d681856123ce565b9350836020820285016120e8856123c4565b8060005b858110156121225784840389528151612105858261209d565b9450612110836123c4565b60209a909a01999250506001016120ec565b5091979650505050505050565b6120b2816123e2565b6120b281611b5a565b6120b2816123e7565b600061215683856123ce565b9350612163838584612418565b61216c83612454565b9093019392505050565b600061218283856103a8565b935061218f838584612418565b50500190565b60006121a0826123ca565b6121aa81856123ce565b93506121ba818560208601612424565b61216c81612454565b60006121ce826123ca565b6121d881856103a8565b93506121e8818560208601612424565b9290920192915050565b60006121ff6024836103a8565b7f696e74657266616365496d706c656d656e74657228627974657333322c6279748152636573342960e01b602082015260240192915050565b6120b2816123f4565b6000611c95828486612176565b6000610a9e82846121c3565b600061086c826121f2565b6020810161086c82846120b8565b6020810161086c82846120a9565b60208082528101610a9e81846120c1565b6020810161086c828461212f565b6020810161086c8284612138565b604081016122bc8285612138565b610a9e6020830184612138565b6020810161086c8284612141565b60208082528101611c9581848661214a565b60208082528101610a9e8184612195565b6040808252810161230b8185612195565b9050610a9e6020830184612238565b6060808252810161232b8186612195565b905061233a6020830185612238565b818103604083015261234c8184612195565b95945050505050565b604081016123638285612138565b8181036020830152611c958184612195565b60405181810167ffffffffffffffff8111828210171561239457600080fd5b604052919050565b600067ffffffffffffffff8211156123b357600080fd5b506020601f91909101601f19160190565b60200190565b5190565b90815260200190565b60006103a5826123fb565b151590565b6001600160e01b03191690565b61ffff1690565b6001600160a01b031690565b60006103a58260006103a5826123d7565b82818337506000910152565b60005b8381101561243f578181015183820152602001612427565b8381111561244e576000848401525b50505050565b601f01601f191690565b612467816123d7565b81146116e157600080fd5b612467816123e2565b61246781611b5a565b612467816123e7565b612467816123f456fea365627a7a72315820b36c69e95d5fec3cd605fe33400798ae2f0ccbc2858377fc94fa50c96c418ed66c6578706572696d656e74616cf564736f6c63430005110040",
    "sourcePath": "/root/geth_test_net/eth-ens-contract/PublicResolver.sol",
    "compiler": {
        "name": "solc",
        "version": "0.5.17+commit.d19bba13"
    },
    "functionHashes": {
        "ABI(bytes32,uint256)": "2203ab56",
        "addr(bytes32)": "3b3b57de",
        "addr(bytes32,uint256)": "f1cb7e06",
        "authorisations(bytes32,address,address)": "f86bc879",
        "clearDNSZone(bytes32)": "ad5780af",
        "contenthash(bytes32)": "bc1c58d1",
        "dnsRecord(bytes32,bytes32,uint16)": "a8fa5682",
        "hasDNSRecords(bytes32,bytes32)": "4cbf6ba4",
        "interfaceImplementer(bytes32,bytes4)": "124a319c",
        "multicall(bytes[])": "ac9650d8",
        "name(bytes32)": "691f3431",
        "pubkey(bytes32)": "c8690233",
        "setABI(bytes32,uint256,bytes)": "623195b0",
        "setAddr(bytes32,address)": "d5fa2b00",
        "setAddr(bytes32,uint256,bytes)": "8b95dd71",
        "setAuthorisation(bytes32,address,bool)": "3e9ce794",
        "setContenthash(bytes32,bytes)": "304e6ade",
        "setDNSRecords(bytes32,bytes)": "0af179d7",
        "setInterface(bytes32,bytes4,address)": "e59d895d",
        "setName(bytes32,string)": "77372213",
        "setPubkey(bytes32,bytes32,bytes32)": "29cd62ea",
        "setText(bytes32,string,string)": "10f13a8c",
        "supportsInterface(bytes4)": "01ffc9a7",
        "text(bytes32,string)": "59d1d43c"
    },
    "gasEstimates": {
        "creation": {
            "codeDepositCost": "1886600",
            "executionCost": "infinite",
            "totalCost": "infinite"
        },
        "external": {
            "ABI(bytes32,uint256)": "infinite",
            "addr(bytes32)": "infinite",
            "addr(bytes32,uint256)": "infinite",
            "authorisations(bytes32,address,address)": "infinite",
            "clearDNSZone(bytes32)": "infinite",
            "contenthash(bytes32)": "infinite",
            "dnsRecord(bytes32,bytes32,uint16)": "infinite",
            "hasDNSRecords(bytes32,bytes32)": "infinite",
            "interfaceImplementer(bytes32,bytes4)": "infinite",
            "multicall(bytes[])": "infinite",
            "name(bytes32)": "infinite",
            "pubkey(bytes32)": "infinite",
            "setABI(bytes32,uint256,bytes)": "infinite",
            "setAddr(bytes32,address)": "infinite",
            "setAddr(bytes32,uint256,bytes)": "infinite",
            "setAuthorisation(bytes32,address,bool)": "infinite",
            "setContenthash(bytes32,bytes)": "infinite",
            "setDNSRecords(bytes32,bytes)": "infinite",
            "setInterface(bytes32,bytes4,address)": "infinite",
            "setName(bytes32,string)": "infinite",
            "setPubkey(bytes32,bytes32,bytes32)": "infinite",
            "setText(bytes32,string,string)": "infinite",
            "supportsInterface(bytes4)": "infinite",
            "text(bytes32,string)": "infinite"
        },
        "internal": {
            "isAuthorised(bytes32)": "infinite"
        }
    }
}